:020000040000FA
:0600000052EF0AF01200AD
:08000800DACFE4FFE2CFDAFFDA
:10001000E9CFE4FFEACFE4FFF6CFE4FFF7CFE4FF58
:10002000F5CFE4FFF3CFE4FFF4CFE4FFFACFE4FF32
:1000300000EE04F0020EE80403E3EECFE4FFFBD78A
:1000400000EE00F0040EE80403E3EECFE4FFFBD77C
:10005000E6529D50200B61E09E50200B5EE09EAA70
:10006000FED71E0EE66E6E0EE66E000EE66E78ECA5
:1000700009F0E552E552E552BA0E00016E5D4CE121
:10008000BC0E6F5D49E1B00E705D46E1B20E715D70
:1000900043E1AF0E725D40E1AA0E735D3DE1BA0E21
:1000A000745D3AE1B90E755D37E1AC0E765D34E111
:1000B000AB0E775D31E1BA0E785D2EE1B20E795D5F
:1000C0002BE1AF0E7A5D28E1BA0E7B5D25E1AD0E26
:1000D0007C5D22E1BE0E7D5D1FE1AB0E7E5D1CE10D
:1000E000AA0E7F5D19E1AD0E805D16E1BE0E815D49
:1000F00013E1CD0E825D10E1CF0E835D0DE1CE0EDA
:10010000845D0AE1CA0E855D07E18080E80EE66E37
:10011000ECEC09F0E55280909E9AE55200EE03F077
:10012000040EE80403E3E5CFEDFFFBD700EE05F096
:10013000020EE80403E3E5CFEDFFFBD7E5CFFAFFBE
:10014000E5CFF4FFE5CFF3FFE5CFF5FFE5CFF7FF10
:10015000E5CFF6FFE5CFEAFFE5CFE9FFE5CFDAFF30
:0201600011008C
:02102A000000C4
:04102C00D9CFE6FF33
:10103000E1CFD9FF050EE126480EDF6EDE52450EE8
:10104000DD6E4C0EF36E020EF3CFDBFF4C0EF36E33
:10105000030EF3CFDBFF4F0EF36E040EF3CFDBFF77
:1010600049D852D8D9CFE6FFDACFE6FF5DD8E552AE
:10107000E5528090FC0EE66E840EE66EF30EE66E90
:1010800041EC09F0E552E552E55292829284838068
:1010900083828384870EE66E1AEC0AF0E5526EECCA
:1010A0000AF069EC0AF0000901E0FBD760EC0AF0F5
:1010B000F3CF6AF0F4CF6BF08F0EE66E1AEC0AF005
:1010C000E5526EEC0AF069EC0AF0000901E0FBD78A
:1010D00060EC0AF0F3CF6CF0F4CF6DF08390D7D7CB
:1010E000050EE15C02E2E16AE552E16EE552E7CF0E
:1010F000D9FF1200D390D392949C948E9290D08E6C
:10110000F28EF28C9D8A12001F0EE66EE66A6C0E5D
:10111000E66EFCEC08F0E552E552E552F40EE66EA0
:1011200031EC0AF0E5521200D9CFE6FFE1CFD9FF4A
:10113000FD0EDBCFE6FFFE0EDBCFE6FFA7EC09F0EE
:10114000E552E552ACA2FED7320EE66EECEC09F0A9
:0A115000E552E552E7CFD9FF120087
:06115A002A0EF66E100ED5
:10116000F76E000EF86E00010900F550656F09007A
:10117000F550666F03E1656701D03DD00900F55079
:10118000606F0900F550616F0900F550626F09004A
:101190000900F550E96E0900F550EA6E09000900F2
:1011A0000900F550636F0900F550646F09000900EC
:1011B000F6CF67F0F7CF68F0F8CF69F060C0F6FFC0
:1011C00061C0F7FF62C0F8FF0001635302E164539E
:1011D00007E00900F550EE6E6307F8E26407F9D7FF
:1011E00067C0F6FF68C0F7FF69C0F8FF0001650738
:0811F000000E665BBFD7120080
:0811F800D9CFE6FFDACFE6FFD4
:10120000E1CFD9FFE2CFDAFFAC6AAB6AFD0EDBB00B
:10121000AC88DBA202D0AC8CAB8CDBB4AC8EDBA692
:1012200002D0AB8801D0AB8ADBB8AC849E98DBBA25
:10123000AB86DBAC02D09D8A01D09D9A9E9ADBAE34
:1012400002D09D8801D09D98FB0EDB50AF6EFB0E47
:10125000FC0EDBCF01F001C000F0016A0050B06E5F
:10126000AC8AAB8E949C948EAC50100B04E0AC50C6
:10127000800B01E1948CE552E5CFDAFFE7CFD9FF8F
:0212800012005A
:0E128200D9CFE6FFDACFE6FFE1CFD9FFE2CF0A
:10129000DAFFC26AC06AFC0EDB407F0B3C0BC26EF9
:1012A000FC0EDB38F00B300B006EFB0EDB500F0B2F
:1012B0000010C16EFD0EDB50040DF350380B016EB3
:1012C000FD0EDB380F0B070B006EFD0EDB50800BA5
:1012D00000100110C06EFC0EDBAE03D09E9C9D8CF6
:1012E000F28CC280E552E5CFDAFFE7CFD9FF1200DA
:1012F000D9CFE6FFDACFE6FFE1CFD9FFE2CFDAFFC1
:10130000E652E652DF6AFB0EDB50DF5C18E29EAA73
:10131000FED7CDEC09F0E76E010EE7CFDBFFFC0E48
:10132000DBCFE9FFFD0EDBCFEAFF010EDBCFEFFFE6
:10133000FC0EDB2AFD0E01E3DB2ADF2AE4D7E552AF
:0E134000E552E552E5CFDAFFE7CFD9FF120004
:02134E00D9CFF5
:10135000E6FFDACFE6FFE1CFD9FFE2CFDAFFACA2BA
:10136000FED7FC0EDBCFE9FFFD0EDBCFEAFFEF502F
:10137000E66E03EC0AF0E552FC0EDBCFE9FFDB2A58
:10138000FD0EDBCFEAFF01E3DB2AEF50E8E1E55297
:0A139000E5CFDAFFE7CFD9FF120026
:06139A00D9CFE6FFDACF17
:1013A000E6FFE1CFD9FFE2CFDAFFE652F20E00010D
:1013B0006F17ABAC03D06F91ABB06F81ABB46F85DF
:1013C000ABB26F87AE50DF6EDF50E552E552E5CF2E
:0813D000DAFFE7CFD9FF12009C
:0813D800FF0EE350076EEF0E5B
:1013E00001D0F30EE76EE72EF3EF09F00C0E066E58
:1013F000E76AE72EF9EF09F0062EF8EF09F0072E5D
:06140000F1EF09F01200FB
:0A140600D9CFE6FFDACFE6FFE1CF11
:10141000D9FFE2CFDAFFACAC04D0AC9000016FB3DF
:10142000AC80FD0EDB50AD6EE552E5CFDAFFE7CFC5
:04143000D9FF1200CE
:0C143400D9CFE6FFDACFE6FFE1CFD9FF09
:10144000E2CFDAFFC30EC214006EFD0EDB407F0B4D
:101450003C0B0010C26EE552E5CFDAFFE7CFD9FFB3
:02146000120078
:0E146200D9CFE6FFDACFE6FFE1CFD9FFE2CF28
:10147000DAFFFD0EDB50B86EE552E5CFDAFFE7CFBD
:04148000D9FF12007E
:0C148400000EF36E00EE00F0080E01D820
:101490001200EA6002D0EE6AFCD7F350E960120055
:0414A000EE6AFCD71D
:0C14A40013EE00F023EE00F0F86A059C47
:1014B000ADEC08F070EC0AF016EC08F0FBD7120067
:1014C000C450036E026AC3500210F36E03C0F4FFEF
:0214D000120008
:0A14D200C250020B01E0010E1200EF
:0414DC00C2821200B6
:0214E0001200F8
:020000040030CA
:010001000CF2
:010003001EDE
:010005008377
:00000001FF
