:020000040000FA
:060000002EEF0AF01200D1
:08000800DACFE4FFE2CFDAFFDA
:10001000E9CFE4FFEACFE4FFF6CFE4FFF7CFE4FF58
:10002000F5CFE4FFF3CFE4FFF4CFE4FFFACFE4FF32
:1000300000EE00F0020EE80403E3EECFE4FFFBD78E
:1000400000EE02F0020EE80403E3EECFE4FFFBD77C
:10005000E6529D50200B28E09E50200B25E09EAAE2
:10006000FED7050EE66E6B0EE66E000EE66E6BECCE
:1000700009F0E552E552E552B70E00016B5D13E160
:10008000BA0E6C5D10E1B30E6D5D0DE1B30E6E5DE9
:100090000AE1B00E6F5D07E18080E80EE66EDFECEE
:1000A00009F0E55280909E9AE55200EE03F0020EB0
:1000B000E80403E3E5CFEDFFFBD700EE01F0020E0D
:1000C000E80403E3E5CFEDFFFBD7E5CFFAFFE5CF8B
:1000D000F4FFE5CFF3FFE5CFF5FFE5CFF7FFE5CF81
:1000E000F6FFE5CFEAFFE5CFE9FFE5CFDAFF110044
:02102A000000C4
:04102C00D9CFE6FF33
:10103000E1CFD9FF180EE126450EDF6EDE52430EDA
:10104000DD6E4F0EF36E020EF3CFDBFF4D0EF36E2F
:10105000030EF3CFDBFF500EF36E040EF3CFDBFF76
:10106000550EF36E050EF3CFDBFF450EF36E060E45
:10107000F3CFDBFF460EF36E070EF3CFDBFF530E0D
:10108000F36E080EF3CFDBFF540EF36E090EF3CFB1
:10109000DBFF450EF36E0A0EF3CFDBFF4D0EF36E52
:1010A0000B0EF3CFDBFF500EF36E0C0EF3CFDBFF16
:1010B000450EF36E0D0EF3CFDBFF520EF36E0E0EE8
:1010C000F3CFDBFF410EF36E0F0EF3CFDBFF540EB9
:1010D000F36E100EF3CFDBFF550EF36E110EF3CF50
:1010E000DBFF520EF36E120EF3CFDBFF410EF36EF9
:1010F000130EF3CFDBFF320EF36E140EF3CFDBFFD4
:10110000300EF36E150EF3CFDBFF310EF36E160EBD
:10111000F3CFDBFF350EF36E170EF3CFDBFF14D8E2
:101120001DD8D9CFE6FFDACFE6FF28D8E552E55241
:101130008090FFD7180EE15C02E2E16AE552E16EB1
:10114000E552E7CFD9FF1200D390D392949C948EAE
:101150009290D08EF28EF28C9D8A12001F0EE66E57
:10116000E66A6C0EE66E26EC09F0E552E552E552B1
:10117000F40EE66E0DEC0AF0E5521200D9CFE6FF50
:10118000E1CFD9FFFD0EDBCFE6FFFE0EDBCFE6FFA2
:101190009AEC09F0E552E552ACA2FED7320EE66EAB
:0E11A000DFEC09F0E552E552E7CFD9FF12006F
:0211AE002A0E07
:1011B000F66E100EF76E000EF86E00010900F55085
:1011C000656F0900F550666F03E1656701D03DD09A
:1011D0000900F550606F0900F550616F0900F55086
:1011E000626F09000900F550E96E0900F550EA6EDA
:1011F000090009000900F550636F0900F550646F9C
:1012000009000900F6CF67F0F7CF68F0F8CF69F072
:1012100060C0F6FF61C0F7FF62C0F8FF00016353D2
:1012200002E1645307E00900F550EE6E6307F8E24F
:101230006407F9D767C0F6FF68C0F7FF69C0F8FF19
:0C12400000016507000E665BBFD71200BE
:04124C00D9CFE6FF11
:10125000DACFE6FFE1CFD9FFE2CFDAFFAC6AAB6AC3
:10126000FD0EDBB0AC88DBA202D0AC8CAB8CDBB467
:10127000AC8EDBA602D0AB8801D0AB8ADBB8AC84E5
:101280009E98DBBAAB86DBAC02D09D8A01D09D9ADA
:101290009E9ADBAE02D09D8801D09D98FB0EDB505C
:1012A000AF6EFB0EFC0EDBCF03F003C002F0036A4F
:1012B0000250B06EAC8AAB8E949C948EAC50100BE6
:1012C00004E0AC50800B01E1948CE552E5CFDAFFED
:0612D000E7CFD9FF120078
:0A12D600D9CFE6FFDACFE6FFE1CF43
:1012E000D9FFE2CFDAFFE652E652DF6AFB0EDB50AF
:1012F000DF5C18E29EAAFED7C0EC09F0E76E010E93
:10130000E7CFDBFFFC0EDBCFE9FFFD0EDBCFEAFF13
:10131000010EDBCFEFFFFC0EDB2AFD0E01E3DB2A23
:10132000DF2AE4D7E552E552E552E5CFDAFFE7CF11
:04133000D9FF1200CF
:0C133400D9CFE6FFDACFE6FFE1CFD9FF0A
:10134000E2CFDAFFACA2FED7FC0EDBCFE9FFFD0E49
:10135000DBCFEAFFEF50E66EF6EC09F0E552FC0E4B
:10136000DBCFE9FFDB2AFD0EDBCFEAFF01E3DB2A5F
:10137000EF50E8E1E552E5CFDAFFE7CFD9FF120001
:10138000D9CFE6FFDACFE6FFE1CFD9FFE2CFDAFF30
:10139000E652F20E00016A17ABAC03D06A91ABB013
:1013A0006A81ABB46A85ABB26A87AE50DF6EDF503C
:0E13B000E552E552E5CFDAFFE7CFD9FF120094
:0213BE00FF0E20
:1013C000E350056EEF0E01D0F30EE76EE72EE6EF69
:1013D00009F00C0E046EE76AE72EECEF09F0042E1C
:0C13E000EBEF09F0052EE4EF09F012001D
:0413EC00D9CFE6FF70
:1013F000DACFE6FFE1CFD9FFE2CFDAFFACAC04D021
:10140000AC9000016AB3AC80FD0EDB50AD6EE552CE
:0A141000E5CFDAFFE7CFD9FF1200A5
:06141A00D9CFE6FFDACF96
:10142000E6FFE1CFD9FFE2CFDAFFFD0EDB50B86E69
:0C143000E552E5CFDAFFE7CFD9FF12004C
:04143C00000EF36E3D
:1014400000EE00F0080E01D81200EA6002D0EE6A49
:0C145000FCD7F350E9601200EE6AFCD7F4
:04145C0013EE00F09B
:1014600023EE00F0F86A019CD7EC08F03CEC0AF09F
:0814700016EC08F0FBD7120096
:02147800120060
:020000040030CA
:010001000CF2
:010003001EDE
:010005008377
:00000001FF
