:020000040000FA
:060000009BEF0DF0120061
:08000800DACFE4FFE2CFDAFFDA
:10001000E9CFE4FFEACFE4FFF6CFE4FFF7CFE4FF58
:10002000F5CFE4FFF3CFE4FFF4CFE4FFFACFE4FF32
:1000300000EE00F0020EE80403E3EECFE4FFFBD78E
:1000400000EE02F0020EE80403E3EECFE4FFFBD77C
:10005000E6529D50200B16E09E50200B13E001014C
:10006000A46B9EAAFED72DEC0DF0E66E0001685140
:10007000682BEA6A690FE96E000EEA22E552E75042
:10008000EF6E9E9AE55200EE03F0020EE80403E3E1
:10009000E5CFEDFFFBD700EE01F0020EE80403E32D
:1000A000E5CFEDFFFBD7E5CFFAFFE5CFF4FFE5CFD6
:1000B000F3FFE5CFF5FFE5CFF7FFE5CFF6FFE5CF9F
:0C00C000EAFFE5CFE9FFE5CFDAFF110011
:06102A000200561B00004D
:1010300000010000A5000000541B0000CD000000CE
:0410400002000000AA
:0C104400D9CFE6FFE1CFD9FFE652DF6A0A
:1010500090D99AD91DEC0AF0E66A17EC0BF0E5522C
:101060004F0EE66E1A0EE66E7FEC0BF0E552E5527F
:101070001DEC0AF0E66A17EC0BF0E5523D0EE66E49
:101080001A0EE66E7FEC0BF0E552E55281A2D4D049
:101090001DEC0AF0E66A17EC0BF0E552300EE66E36
:1010A0001A0EE66E7FEC0BF0E552E552DF6ADF5078
:1010B00030E10001590E686F685100080AE268517A
:1010C000EA6A690FE96E000EEA22200EEF6E6807E9
:1010D000F3D70B0EE66EE66A5B0EE66E010EE66E69
:1010E00063D9E552E552E552E552FA0EE66E4CEC54
:1010F0000DF0E552FA0EE66E4CEC0DF0E552B00E36
:101100000001695D05E1B40E6A5D02E1010EDF6E6A
:10111000CED7DF6ADF5030E10001590E686F6851A9
:1011200000080AE26851EA6A690FE96E000EEA22D5
:10113000200EEF6E6807F3D70F0EE66EE66A4C0ED0
:10114000E66E010EE66E30D9E552E552E552E55203
:10115000FA0EE66E4CEC0DF0E552FA0EE66E4CEC33
:101160000DF0E552B00E0001695D05E1B40E6A5D57
:1011700002E1010EDF6ECED7160EE66EE66A660E4F
:10118000E66E010EE66E10D9E552E552E552E552E3
:10119000FA0EE66E4CEC0DF0E552FA0EE66E4CECF3
:1011A0000DF0E552FA0EE66E4CEC0DF0E552FA0E3B
:1011B000E66E4CEC0DF0E552FA0EE66E4CEC0DF0DE
:1011C000E552070EE66EE66A7C0EE66E010EE66EEE
:1011D000EBD8E552E552E552E552FA0EE66E4CECDC
:1011E0000DF0E552FA0EE66E4CEC0DF0E552A2C1A0
:1011F000E6FF0FD9E552FA0EE66E4CEC0DF0E55223
:10120000FA0EE66E4CEC0DF0E552A3C1E6FF01D9F3
:10121000E552FA0EE66E4CEC0DF0E5521DEC0AF0CC
:10122000E66A17EC0BF0E552040EE66E1A0EE66E57
:101230007FEC0BF0E552E55281A495D01DEC0AF04D
:10124000E66A17EC0BF0E5521F0EE66E1A0EE66E1C
:101250007FEC0BF0E552E5520B0EE66EE66A5B0E94
:10126000E66E010EE66EA0D8E552E552E552E55273
:10127000FA0EE66E4CEC0DF0E552FA0EE66E4CEC12
:101280000DF0E552FA0EE66E4CEC0DF0E552130E41
:10129000E66EE66A8F0EE66E010EE66E85D8E552C2
:1012A000E552E552E552FA0EE66E4CEC0DF0E552D1
:1012B000FA0EE66E4CEC0DF0E552FA0EE66E4CECD2
:1012C0000DF0E55204EC00F00001606B616B2E0E36
:1012D00061AF02D0D89003D0605D000E61590CE27E
:1012E000620E6025E96E000E6121EA6E00C1EFFF1B
:1012F000602B000E6123EBD71DEC0AF0E66A17ECB9
:101300000BF0E552100EE66E1A0EE66E7FEC0BF057
:10131000E552E552060EE66EE66A620EE66E000ED5
:10132000E66E42D8E552E552E552E552FA0EE66E17
:101330004CEC0DF0E552FA0EE66E4CEC0DF0E55279
:10134000FA0EE66E4CEC0DF0E5521DEC0AF0E66A82
:1013500017EC0BF0E552620EE66E000EE66E7FECC7
:101360000BF0E552E55284D6E552E552E7CFD9FFBE
:101370001200D390D392949C948E93829384D08EB7
:10138000F28EF28C9D8A12001F0EE66EE66A6C0EDB
:10139000E66EBDEC0CF0E552E552E552F40EE66E59
:1013A0007AEC0DF0E5521200D9CFE6FFE1CFD9FF7C
:1013B0000101016B026BFB0EDBCF02F0FC0EDBCFF9
:1013C00003F002510318E8AE02D0033404D00250F7
:1013D000015D0350025919E2FD0EDB5001250F019A
:1013E000E96EFE0EDB50010102210F01EA6EEF50A3
:1013F000E66E0FD8E552FA0EE66E4CEC0DF0E552B3
:101400000101012B000E0223D6D7E552E7CFD9FF09
:101410001200D9CFE6FFE1CFD9FFACA2FED7FE0E76
:10142000DBCFE6FF63EC0DF0E5520001FE0ECD6F61
:0A143000CE69E552E7CFD9FF1200A4
:06143A000F0EC112959493
:1014400095969598959A959C959E83948396839E60
:10145000839C838A8388120EE66E4CEC0DF0E55275
:101460008386060EE66E4CEC0DF0E5528396060E72
:10147000E66E4CEC0DF0E552060EE66E4CEC0DF00F
:10148000E5528386060EE66E4CEC0DF0E55283962F
:10149000060EE66E4CEC0DF0E552060EE66E4CECD8
:1014A0000DF0E5528386060EE66E4CEC0DF0E5522B
:1014B0008396060EE66E4CEC0DF0E552839E839CFF
:1014C000838A83988386060EE66E4CEC0DF0E55217
:1014D0008396060EE66E4CEC0DF0E552280EE66E95
:1014E0000ED8E552060EE66E0AD8E5520E0EE66EEE
:1014F00006D8E552010EE66E02D8E5521200D9CFA9
:10150000E6FFE1CFD9FF83948396FE0EDBA802D0DD
:10151000838801D08398DBAA02D0838A01D0839A82
:10152000DBAC02D0838C01D0839CDBAE02D0838EF7
:1015300001D0839E8386060EE66E4CEC0DF0E552DC
:101540008396060EE66E4CEC0DF0E552FE0EDBA027
:1015500002D0838801D08398DBA202D0838A01D095
:10156000839ADBA402D0838C01D0839CDBA602D0BB
:10157000838E01D0839E8386060EE66E4CEC0DF0C2
:10158000E5528396060EE66E4CEC0DF0E552E55200
:10159000E7CFD9FF1200D9CFE6FFE1CFD9FF83848F
:1015A0008396FE0EDBA802D0838801D08398DBAA45
:1015B00002D0838A01D0839ADBAC02D0838C01D025
:1015C000839CDBAE02D0838E01D0839E8386060E81
:1015D000E66E4CEC0DF0E5528396060EE66E4CEC92
:1015E0000DF0E552FE0EDBA002D0838801D0839877
:1015F000DBA202D0838A01D0839ADBA402D0838C41
:1016000001D0839CDBA602D0838E01D0839E83868B
:10161000060EE66E4CEC0DF0E5528396060EE66E75
:101620004CEC0DF0E552E552E7CFD9FF1200D9CFCF
:10163000E6FFE1CFD9FF83948396838EFE0EDBA86D
:1016400002D0838801D08398DBAA02D0838A01D09C
:10165000839ADBAC02D0838C01D0839C8386060EF8
:10166000E66E4CEC0DF0E5528396060EE66E4CEC01
:101670000DF0E552FE0EDBA002D0838801D08398E6
:10168000DBA202D0838A01D0839ADBA402D0838CB0
:1016900001D0839CDBA602D0838E01D0839E8386FB
:1016A000060EE66E4CEC0DF0E5528396060EE66EE5
:1016B0004CEC0DF0E552E552E7CFD9FF1200D9CF3F
:1016C000E6FFE1CFD9FFFD0EDBCFE9FFFE0EDBCF5A
:1016D000EAFFEF5010E0FD0EDBCFE9FFFE0EDBCF9F
:1016E000EAFFEF50E66E57DFE552FD0EDB2AFE0EF5
:1016F00001E3DB2AE8D7E552E7CFD9FF1200D9CFC3
:10170000E6FFE1CFD9FFFD0EDBCFF6FFFE0EDBCF0C
:10171000F7FF0800F55011E0FD0EDBCFF6FFFE0EDF
:10172000DBCFF7FF0800F550E66E35DFE552FD0E22
:10173000DB2AFE0E01E3DB2AE6D7E552E7CFD9FF2D
:101740001200D9CFE6FFE1CFD9FF070EE126D9CFAE
:10175000E9FFDACFEAFF200EEE6EEE6AEE6AEE6A7D
:10176000EE6AEE6AEE6AD9CFE6FFDACFE6FFFD0E4B
:10177000DBCFE6FFFE0EDBCFE6FFD4EC0BF0E5524D
:10178000E552E552E552D9CFE6FFDACFE6FF97DF23
:10179000E552E552070EE15C02E2E16AE552E16ED4
:0817A000E552E7CFD9FF12006A
:0817A800D9CFE6FFDACFE6FF1E
:1017B000FA0EE3CFD9FFFB0EE3CFDAFFFD0EE352C3
:1017C00009E72D0EDE6EFC0EE31EE32AFD0ED8B4F3
:1017D000E306E31EE652E652E652FD0EE124E76E12
:1017E000FF0EE220E46EE652F70EE3CFE6FFF70EBF
:1017F000E3CFE6FF44EC0CF0F90EE124E96EFF0EB6
:10180000E220EA6E34EC0CF00AE131EC0CF009E174
:1018100034EC0CF008E131EC0CF007E108D03FECBF
:101820000CF03AEC0CF03FEC0CF03AEC0CF03FEC26
:101830000CF0DE6AF90EE126FF0EE222FF0EE3CF86
:10184000DAFFE552FF0EE3CFD9FFE552FC0EE124AB
:10185000E96EFF0EE220EA6EEECFF3FFEFCFF4FF6A
:101860001200EF380F0B1200EF500F0B02E1EE5297
:10187000D8841200EF380F0B300FDE6E1200EE50DE
:101880000F0B300FDE6E1200FC0EE3CFE9FFFD0EF2
:10189000E3CFEAFF100EE66EEE6AEE6AEF6AD890CA
:1018A000FD0EE336FE0EE336ED36ED36EF36FF0E77
:1018B000E30609E065EC0CF0EE5265EC0CF0EE523C
:1018C00065EC0CF0EDD7E56E1200030EEF24E8B6E0
:0C18D000EF6E300EEF24E8BEEF6E000C4F
:0418DC002A0EF66E6C
:1018E000100EF76E000EF86E00010900F550C86F7B
:1018F0000900F550C96F03E1C86701D03DD0090068
:10190000F550C36F0900F550C46F0900F550C56F5D
:1019100009000900F550E96E0900F550EA6E09006A
:1019200009000900F550C66F0900F550C76F09009E
:101930000900F6CFCAF0F7CFCBF0F8CFCCF0C3C098
:10194000F6FFC4C0F7FFC5C0F8FF0001C65302E1AF
:10195000C75307E00900F550EE6EC607F8E2C70767
:10196000F9D7CAC0F6FFCBC0F7FFCCC0F8FF000123
:0A197000C807000EC95BBFD71200C4
:06197A00D9CFE6FFDACF31
:10198000E6FFE1CFD9FFE2CFDAFFAC6AAB6AFD0E2A
:10199000DBB0AC88DBA202D0AC8CAB8CDBB4AC8E01
:1019A000DBA602D0AB8801D0AB8ADBB8AC849E98B2
:1019B000DBBAAB86DBAC02D09D8A01D09D9A9E9AA1
:1019C000DBAE02D09D8801D09D98FB0EDB50AF6E40
:1019D000FB0EFC0EDBCF03F003C002F0036A0250E3
:1019E000B06EAC8AAB8E949C948EAC50100B04E01D
:1019F000AC50800B01E1948CE552E5CFDAFFE7CFE4
:041A0000D9FF1200F8
:0C1A0400534D532053656E742E2E2E009F
:101A100020534D532052656365697665642000202C
:101A200057616974696E6720666F7220534D530069
:101A30002053656E64696E67202E2E200053656EFC
:101A400064206F7220726563656976653F200020AF
:091A500057656C636F6D652000A1
:061A5A00D9CFE6FFDACF50
:101A6000E6FFE1CFD9FFE2CFDAFFE652F20E000146
:101A7000CF17ABAC03D0CF91ABB0CF81ABB4CF8598
:101A8000ABB2CF87AE50DF6EDF50E552E552E5CF07
:081A9000DAFFE7CFD9FF1200D5
:081A9800FF0EE350056EEF0E96
:101AA00001D0F30EE76EE72E53EF0DF00C0E046E2F
:101AB000E76AE72E59EF0DF0042E58EF0DF0052ED2
:061AC00051EF0DF01200D1
:0A1AC600D9CFE6FFDACFE6FFE1CF4B
:101AD000D9FFE2CFDAFFACAC04D0AC900001CFB3B9
:101AE000AC80FD0EDB50AD6EE552E5CFDAFFE7CFFF
:041AF000D9FF120008
:0C1AF400D9CFE6FFDACFE6FFE1CFD9FF43
:101B0000E2CFDAFFFD0EDB50B86EE552E5CFDAFF2B
:061B1000E7CFD9FF12002F
:0A1B1600000EF36E00EE00F0080E62
:101B200001D81200EA6002D0EE6AFCD7F350E960F7
:061B30001200EE6AFCD772
:0A1B360013EE00F023EE00F0F86A51
:101B4000019C6EEC0CF0A9EC0DF022EC08F0FBD738
:021B5000120081
:021B520012007F
:021B5400FEFF92
:0A1B56000000002057656C636F6DFE
:101B600065200053656E64206F722072656365693D
:101B700076653F20002053656E64696E67202E2EC7
:101B800020002057616974696E6720666F72205368
:101B90004D530020534D532052656365697665644B
:101BA000200041542B435343533D2247534D220DB4
:101BB0000041542B434D47463D310D0041542B43CA
:101BC0004D47533D2258585858585858585858223D
:101BD0000D0048656C6C6F0D00534D532053656EBE
:101BE000742E2E2E0041542B434E4D493D312C3244
:0B1BF0002C302C302C300D001A0D00A2
:020000040030CA
:0100000002FD
:010001000CF2
:010002001FDE
:010003001EDE
:010005008179
:010006008178
:00000001FF
