:020000040000FA
:0600000097EF00F0120072
:020006001200E6
:08000800DACFE4FFE65200012B
:100010006A2B8370837283748376020EE76E6A198B
:10002000E8AE02D0E73402D0E7506A5D05E383789A
:10003000837A837C837E6A6BF294670ED76E6A0E36
:10004000D66EE552E5CFDAFF1100956A0F0E836E8A
:10005000870ED56EA00EF26E670ED76E6A0ED66E44
:02006000FFD7C8
:0E00620001004A0100006A00000001000000D9
:10007000620EF66E000EF76E000EF86E00010900BB
:10008000F550656F0900F550666F03E1656701D0B3
:100090003DD00900F550606F0900F550616F09000F
:1000A000F550626F09000900F550E96E0900F5503E
:1000B000EA6E090009000900F550636F0900F55068
:1000C000646F09000900F6CF67F0F7CF68F0F8CF4A
:1000D00069F060C0F6FF61C0F7FF62C0F8FF000181
:1000E000635302E1645307E00900F550EE6E6307C5
:1000F000F8E26407F9D767C0F6FF68C0F7FF69C088
:0E010000F8FF00016507000E665BBFD7120016
:02010E00000EE1
:10011000F36E00EE00F0080E01D81200EA6002D083
:0E012000EE6AFCD7F350E9601200EE6AFCD7DD
:02012E0013EECE
:1001300000F023EE00F0F86A019C38EC00F003ECCC
:0A01400000F025EC00F0FBD71200E0
:01014A0000B4
:00000001FF
