:020000040000FA
:06000000E5EF00F0120024
:020006000000F8
:08000800060EF66E000EF76E05
:10001000000EF86E00010900F550656F0900F550FB
:10002000666F03E1656701D03DD00900F550606F50
:100030000900F550616F0900F550626F0900090071
:10004000F550E96E0900F550EA6E09000900090053
:10005000F550636F0900F550646F09000900F6CF91
:1000600067F0F7CF68F0F8CF69F060C0F6FF61C0C5
:10007000F7FF62C0F8FF0001635302E1645307E039
:100080000900F550EE6E6307F8E26407F9D767C020
:10009000F6FF68C0F7FF69C0F8FF00016507000EB2
:0600A000665BBFD71200F1
:0A00A600D9CFE6FFDACFE6FFE1CF85
:1000B000D9FFE2CFDAFFC26AC06AFC0EDB407F0BD9
:1000C0003C0BC26EFC0EDB38F00B300B006EFB0EEF
:1000D000DB500F0B0010C16EFD0EDB50040DF35012
:1000E000380B016EFD0EDB380F0B070B006EFD0E9B
:1000F000DB50800B00100110C06EFC0EDBAE03D095
:100100009E9C9D8CF28CC280E552E5CFDAFFE7CF52
:04011000D9FF120001
:0C011400FC0EE66E840EE66EF30EE66E46
:1001200053EC00F0E552E552E552928292848380CE
:1001300083828384870EE66EBEEC00F0E55201EC0C
:1001400001F0FCEC00F00009FCE1F3EC00F0F3CF6F
:100150006AF0F4CF6BF08F0EE66EBEEC00F0E55265
:1001600001EC01F0FCEC00F00009FCE1F3EC00F024
:0C017000F3CF6CF0F4CF6DF08390D9D782
:04017C00D9CFE6FFF2
:10018000DACFE6FFE1CFD9FFE2CFDAFFC30EC21428
:10019000006EFD0EDB407F0B3C0B0010C26EE55283
:0A01A000E5CFDAFFE7CFD9FF120028
:0601AA00000EF36E00EEF2
:1001B00000F0080E01D81200EA6002D0EE6AFCD707
:0A01C000F350E9601200EE6AFCD76C
:0601CA0013EE00F023EE2D
:1001D00000F0F86A059C04EC00F003EC01F08AECF6
:0601E00000F0FBD7120045
:0A01E600C450036E026AC3500210F9
:0801F000F36E03C0F4FF1200DE
:0801F800C250020B01E0010EF0
:020200001200EA
:04020200C2821200A2
:020206001200E4
:00000001FF
