:020000040000FA
:06000000C8EF09F0120038
:08000800DACFE4FFE2CFDAFFDA
:10001000E9CFE4FFEACFE4FFF6CFE4FFF7CFE4FF58
:10002000F5CFE4FFF3CFE4FFF4CFE4FFFACFE4FF32
:1000300000EE00F0020EE80403E3EECFE4FFFBD78E
:1000400000EE02F0020EE80403E3EECFE4FFFBD77C
:10005000E6529D50200B61E09E50200B5EE09EAA70
:10006000FED71E0EE66E6B0EE66E000EE66E05EC1B
:1000700009F0E552E552E552BA0E00016B5D4CE124
:10008000BC0E6C5D49E1B00E6D5D46E1B20E6E5D79
:1000900043E1AF0E6F5D40E1AA0E705D3DE1BA0E27
:1000A000715D3AE1B90E725D37E1AC0E735D34E11A
:1000B000AB0E745D31E1BA0E755D2EE1B20E765D68
:1000C0002BE1AF0E775D28E1BA0E785D25E1AD0E2C
:1000D000795D22E1BE0E7A5D1FE1AB0E7B5D1CE116
:1000E000AA0E7C5D19E1AD0E7D5D16E1BE0E7E5D52
:1000F00013E1CD0E7F5D10E1CF0E805D0DE1CE0EE0
:10010000815D0AE1CA0E825D07E18080E80EE66E3D
:1001100079EC09F0E55280909E9AE55200EE03F0EA
:10012000020EE80403E3E5CFEDFFFBD700EE01F09C
:10013000020EE80403E3E5CFEDFFFBD7E5CFFAFFBE
:10014000E5CFF4FFE5CFF3FFE5CFF5FFE5CFF7FF10
:10015000E5CFF6FFE5CFEAFFE5CFE9FFE5CFDAFF30
:0201600011008C
:02102A000000C4
:04102C00D9CFE6FF33
:10103000E1CFD9FF070EE126480EDF6EDE52450EE6
:10104000DD6E4C0EF36E020EF3CFDBFF4C0EF36E33
:10105000030EF3CFDBFF4F0EF36E040EF3CFDBFF77
:101060000DD816D88090FFD7070EE15C02E2E16A46
:10107000E552E16EE552E7CFD9FF1200D390D3924B
:10108000949C948E9290D08EF28EF28C9D8A120057
:101090001F0EE66EE66A6C0EE66EC0EC08F0E552D6
:1010A000E552E552F40EE66EA7EC09F0E5521200A7
:1010B000D9CFE6FFE1CFD9FFFD0EDBCFE6FFFE0E75
:1010C000DBCFE6FF34EC09F0E552E552ACA2FED7E7
:1010D000320EE66E79EC09F0E552E552E7CFD9FF22
:0210E0001200FC
:0E10E2002A0EF66E100EF76E000EF86E00016C
:1010F0000900F550656F0900F550666F03E16567FB
:1011000001D03DD00900F550606F0900F550616FC6
:101110000900F550626F09000900F550E96E0900F9
:10112000F550EA6E090009000900F550636F0900E7
:10113000F550646F09000900F6CF67F0F7CF68F04B
:10114000F8CF69F060C0F6FF61C0F7FF62C0F8FF3A
:101150000001635302E1645307E00900F550EE6EAD
:101160006307F8E26407F9D767C0F6FF68C0F7FFC6
:1011700069C0F8FF00016507000E665BBFD712006B
:10118000D9CFE6FFDACFE6FFE1CFD9FFE2CFDAFF32
:10119000AC6AAB6AFD0EDBB0AC88DBA202D0AC8CD3
:1011A000AB8CDBB4AC8EDBA602D0AB8801D0AB8AB3
:1011B000DBB8AC849E98DBBAAB86DBAC02D09D8AF0
:1011C00001D09D9A9E9ADBAE02D09D8801D09D9859
:1011D000FB0EDB50AF6EFB0EFC0EDBCF03F003C04B
:1011E00002F0036A0250B06EAC8AAB8E949C948E6F
:1011F000AC50100B04E0AC50800B01E1948CE55234
:0A120000E5CFDAFFE7CFD9FF1200B7
:06120A00D9CFE6FFDACFA8
:10121000E6FFE1CFD9FFE2CFDAFFE652E652DF6A1E
:10122000FB0EDB50DF5C18E29EAAFED75AEC09F0F9
:10123000E76E010EE7CFDBFFFC0EDBCFE9FFFD0E13
:10124000DBCFEAFF010EDBCFEFFFFC0EDB2AFD0E4A
:1012500001E3DB2ADF2AE4D7E552E552E552E5CF88
:08126000DAFFE7CFD9FF12000D
:08126800D9CFE6FFDACFE6FF63
:10127000E1CFD9FFE2CFDAFFACA2FED7FC0EDBCF85
:10128000E9FFFD0EDBCFEAFFEF50E66E90EC09F0D0
:10129000E552FC0EDBCFE9FFDB2AFD0EDBCFEAFFD8
:1012A00001E3DB2AEF50E8E1E552E5CFDAFFE7CFD3
:0412B000D9FF120050
:0C12B400D9CFE6FFDACFE6FFE1CFD9FF8B
:1012C000E2CFDAFFE652F20E00016A17ABAC03D0B0
:1012D0006A91ABB06A81ABB46A85ABB26A87AE5033
:1012E000DF6EDF50E552E552E5CFDAFFE7CFD9FFF9
:0212F0001200EA
:0E12F200FF0EE350056EEF0E01D0F30EE76E17
:10130000E72E80EF09F00C0E046EE76AE72E86EFF9
:1013100009F0042E85EF09F0052E7EEF09F012008A
:10132000D9CFE6FFDACFE6FFE1CFD9FFE2CFDAFF90
:10133000ACAC04D0AC9000016AB3AC80FD0EDB50C5
:0E134000AD6EE552E5CFDAFFE7CFD9FF120020
:02134E00D9CFF5
:10135000E6FFDACFE6FFE1CFD9FFE2CFDAFFFD0EFD
:10136000DB50B86EE552E5CFDAFFE7CFD9FF1200C8
:10137000000EF36E00EE00F0080E01D81200EA60D5
:1013800002D0EE6AFCD7F350E9601200EE6AFCD797
:1013900013EE00F023EE00F0F86A019C71EC08F007
:0C13A000D6EC09F016EC08F0FBD71200A8
:0213AC0012002D
:020000040030CA
:010001000CF2
:010003001EDE
:010005008377
:00000001FF
