:020000040000FA
:06000000AFEF0CF012004E
:08000800DACFE4FFE2CFDAFFDA
:10001000E9CFE4FFEACFE4FFF6CFE4FFF7CFE4FF58
:10002000F5CFE4FFF3CFE4FFF4CFE4FFFACFE4FF32
:1000300000EE00F0020EE80403E3EECFE4FFFBD78E
:1000400000EE02F0020EE80403E3EECFE4FFFBD77C
:10005000E6529D50200B16E09E50200B13E001014C
:100060004B6B9EAAFED741EC0CF0E66E0001665188
:10007000662BEA6A670FE96E000EEA22E552E75046
:10008000EF6E9E9AE55200EE03F0020EE80403E3E1
:10009000E5CFEDFFFBD700EE01F0020EE80403E32D
:1000A000E5CFEDFFFBD7E5CFFAFFE5CFF4FFE5CFD6
:1000B000F3FFE5CFF5FFE5CFF7FFE5CFF6FFE5CF9F
:0C00C000EAFFE5CFE9FFE5CFDAFF110011
:06102A0002007E19000027
:10103000000100004C0000007C190000CB00000003
:0410400002000000AA
:0C1044000F0EC112959495969598959A00
:10105000959C959E83948396839E839C838A8388A4
:10106000120EE66E60EC0CF0E5528386060EE66E1C
:1010700060EC0CF0E5528396060EE66E60EC0CF028
:10108000E552060EE66E60EC0CF0E5528386060E25
:10109000E66E60EC0CF0E5528396060EE66E60ECB0
:1010A0000CF0E552060EE66E60EC0CF0E55283861D
:1010B000060EE66E60EC0CF0E5528396060EE66EC8
:1010C00060EC0CF0E552839E839C838A8398838630
:1010D000060EE66E60EC0CF0E5528396060EE66EA8
:1010E00060EC0CF0E552280EE66E0ED8E552060EC6
:1010F000E66E0AD8E5520E0EE66E06D8E552010EEF
:10110000E66E02D8E5521200D9CFE6FFE1CFD9FF53
:1011100083948396FE0EDBA802D0838801D0839847
:10112000DBAA02D0838A01D0839ADBAC02D0838C05
:1011300001D0839CDBAE02D0838E01D0839E838658
:10114000060EE66E60EC0CF0E5528396060EE66E37
:1011500060EC0CF0E552FE0EDBA002D0838801D0DB
:101160008398DBA202D0838A01D0839ADBA402D0C9
:10117000838C01D0839CDBA602D0838E01D0839E1A
:101180008386060EE66E60EC0CF0E5528396060E42
:10119000E66E60EC0CF0E552E552E7CFD9FF1200A5
:1011A000D9CFE6FFE1CFD9FF83848396FE0EDBA87B
:1011B00002D0838801D08398DBAA02D0838A01D031
:1011C000839ADBAC02D0838C01D0839CDBAE02D04F
:1011D000838E01D0839E8386060EE66E60EC0CF053
:1011E000E5528396060EE66E60EC0CF0E552FE0EBC
:1011F000DBA002D0838801D08398DBA202D0838A4F
:1012000001D0839ADBA402D0838C01D0839CDBA61F
:1012100002D0838E01D0839E8386060EE66E60EC3C
:101220000CF0E5528396060EE66E60EC0CF0E5528B
:10123000E552E7CFD9FF1200D9CFE6FFE1CFD9FFC2
:1012400083948396838EFE0EDBA802D0838801D020
:101250008398DBAA02D0838A01D0839ADBAC02D0C8
:10126000838C01D0839C8386060EE66E60EC0CF0C6
:10127000E5528396060EE66E60EC0CF0E552FE0E2B
:10128000DBA002D0838801D08398DBA202D0838ABE
:1012900001D0839ADBA402D0838C01D0839CDBA68F
:1012A00002D0838E01D0839E8386060EE66E60ECAC
:1012B0000CF0E5528396060EE66E60EC0CF0E552FB
:1012C000E552E7CFD9FF1200D9CFE6FFE1CFD9FF32
:1012D000FD0EDBCFE9FFFE0EDBCFEAFFEF5010E0A3
:1012E000FD0EDBCFE9FFFE0EDBCFEAFFEF50E66E2F
:1012F00057DFE552FD0EDB2AFE0E01E3DB2AE8D7BD
:10130000E552E7CFD9FF1200D9CFE6FFE1CFD9FFF1
:10131000FD0EDBCFF6FFFE0EDBCFF7FF0800F5502A
:1013200011E0FD0EDBCFF6FFFE0EDBCFF7FF08006E
:10133000F550E66E35DFE552FD0EDB2AFE0E01E3C9
:10134000DB2AE6D7E552E7CFD9FF1200D9CFE6FF77
:10135000E1CFD9FF070EE126D9CFE9FFDACFEAFFC7
:10136000200EEE6EEE6AEE6AEE6AEE6AEE6AEE6AE3
:10137000D9CFE6FFDACFE6FFFD0EDBCFE6FFFE0EAC
:10138000DBCFE6FF13EC0BF0E552E552E552E552F8
:10139000D9CFE6FFDACFE6FF97DFE552E552070E39
:1013A000E15C02E2E16AE552E16EE552E7CFD9FF86
:0213B000120029
:0E13B200D9CFE6FFE1CFD9FF030EE126DF6AB7
:1013C000010EDB6A020EDB6ACBD8D4D881A216D01C
:1013D000040EE66EE66A450EE66E010EE66EDAD89B
:1013E000E552E552E552E552FA0EE66E60EC0CF07D
:1013F000E552FA0EE66E60EC0CF0E552DF504FE17C
:10140000D950010FE96EDACFEAFFEE50ED1047E157
:10141000BE0E0001675D42E1AB0E685D3FE1D40E98
:10142000695D3CE1BC0E6A5D39E1B20E6B5D36E18F
:10143000B80E6C5D33E1B90E6D5D30E1C20E6E5DCC
:101440002DE1CE0E6F5D2AE1F20E705D27E1010EF7
:10145000DB2A020E01E3DB2A040EE66EE66A450E85
:10146000E66E010EE66E96D8E552E552E552E5527B
:10147000FA0EE66E60EC0CF0E552FA0EE66E60ECE9
:101480000CF0E552D950010FE96EDACFEAFF010EF8
:10149000EE1801E1ED5002E1010EDF6EAFD7DF6A19
:1014A000DF5053E1D950010FE96EDACFEAFF010EA8
:1014B000EE1801E1ED5049E1BE0E0001715D44E11D
:1014C000AB0E725D41E1D40E735D3EE1BC0E745D06
:1014D0003BE1AC0E755D38E1BC0E765D35E1AC0EDE
:1014E000775D32E1C20E785D2FE1DD0E795D2CE192
:1014F000B80E7A5D29E1AC0E7B5D26E1B20E7C5D13
:1015000023E1DD0E7D5D20E1F20E7E5D1DE1010E29
:10151000DB2A020E01E3DB2A040EE66EE66A450EC4
:10152000E66E010EE66E36D8E552E552E552E5521A
:10153000D950010FE96EDACFEAFF020EEE1801E191
:10154000ED5002E1010EDF6EABD758D7030EE15C20
:1015500002E2E16AE552E16EE552E7CFD9FF1200FF
:10156000D390D392949C948E9382D08EF28EF28CF0
:101570009D8A12001F0EE66EE66A6C0EE66EFCECAB
:101580000BF0E552E552E552F40EE66E8EEC0CF0EF
:10159000E5521200D9CFE6FFE1CFD9FF0101496B37
:1015A0004A6BFB0EDBCF02F0FC0EDBCF03F04A519F
:1015B0000318E8AE02D0033404D00250495D035052
:1015C0004A5919E2FD0EDB5049250F01E96EFE0E66
:1015D000DB5001014A210F01EA6EEF50E66E0FD891
:1015E000E552FA0EE66E60EC0CF0E5520101492B73
:1015F000000E4A23D6D7E552E7CFD9FF1200D9CF44
:10160000E6FFE1CFD9FFACA2FED7FE0EDBCFE6FFAF
:1016100077EC0CF0E5520001FE0ECB6FCC69E55281
:06162000E7CFD9FF120024
:0A162600D9CFE6FFDACFE6FFFA0E97
:10163000E3CFD9FFFB0EE3CFDAFFFD0EE35209E75C
:101640002D0EDE6EFC0EE31EE32AFD0ED8B4E3067B
:10165000E31EE652E652E652FD0EE124E76EFF0E6F
:10166000E220E46EE652F70EE3CFE6FFF70EE3CF9B
:10167000E6FF83EC0BF0F90EE124E96EFF0EE220A9
:10168000EA6E73EC0BF00AE170EC0BF009E173EC1D
:101690000BF008E170EC0BF007E108D07EEC0BF0EA
:1016A00079EC0BF07EEC0BF079EC0BF07EEC0BF0B0
:1016B000DE6AF90EE126FF0EE222FF0EE3CFDAFF2B
:1016C000E552FF0EE3CFD9FFE552FC0EE124E96EAF
:1016D000FF0EE220EA6EEECFF3FFEFCFF4FF120031
:1016E000EF380F0B1200EF500F0B02E1EE52D884CF
:1016F0001200EF380F0B300FDE6E1200EE500F0BA2
:10170000300FDE6E1200FC0EE3CFE9FFFD0EE3CFDB
:10171000EAFF100EE66EEE6AEE6AEF6AD890FD0EF2
:10172000E336FE0EE336ED36ED36EF36FF0EE3061A
:1017300009E0A4EC0BF0EE52A4EC0BF0EE52A4EC9A
:101740000BF0EDD7E56E1200030EEF24E8B6EF6E56
:0A175000300EEF24E8BEEF6E000C2F
:06175A002A0EF66E100ECF
:10176000F76E000EF86E00010900F550C66F090013
:10177000F550C76F03E1C66701D03DD00900F550B1
:10178000C16F0900F550C26F0900F550C36F090021
:101790000900F550E96E0900F550EA6E09000900EC
:1017A0000900F550C46F0900F550C56F0900090024
:1017B000F6CFC8F0F7CFC9F0F8CFCAF0C1C0F6FF36
:1017C000C2C0F7FFC3C0F8FF0001C45302E1C55314
:1017D00007E00900F550EE6EC407F8E2C507F9D737
:1017E000C8C0F6FFC9C0F7FFCAC0F8FF0001C607AE
:0817F000000EC75BBFD7120019
:0817F800D9CFE6FFDACFE6FFCE
:10180000E1CFD9FFE2CFDAFFAC6AAB6AFD0EDBB005
:10181000AC88DBA202D0AC8CAB8CDBB4AC8EDBA68C
:1018200002D0AB8801D0AB8ADBB8AC849E98DBBA1F
:10183000AB86DBAC02D09D8A01D09D9A9E9ADBAE2E
:1018400002D09D8801D09D98FB0EDB50AF6EFB0E41
:10185000FC0EDBCF03F003C002F0036A0250B06E4F
:10186000AC8AAB8E949C948EAC50100B04E0AC50C0
:10187000800B01E1948CE552E5CFDAFFE7CFD9FF89
:02188000120054
:0E188200D9CFE6FFDACFE6FFE1CFD9FFE2CF04
:10189000DAFFE652F20E0001CD17ABAC03D0CD91CA
:1018A000ABB0CD81ABB4CD85ABB2CD87AE50DF6EE2
:1018B000DF50E552E552E5CFDAFFE7CFD9FF12005E
:1018C000FF0EE350056EEF0E01D0F30EE76EE72E2C
:1018D00067EF0CF00C0E046EE76AE72E6DEF0CF06C
:0E18E000042E6CEF0CF0052E65EF0CF01200DC
:0218EE00D9CF50
:1018F000E6FFDACFE6FFE1CFD9FFE2CFDAFFACAC0B
:1019000004D0AC900001CDB3AC80FD0EDB50AD6EC9
:0C191000E552E5CFDAFFE7CFD9FF120067
:04191C00D9CFE6FF3A
:10192000DACFE6FFE1CFD9FFE2CFDAFFFD0EDB50E1
:0E193000B86EE552E5CFDAFFE7CFD9FF12001F
:02193E00000E99
:10194000F36E00EE00F0080E01D81200EA6002D03B
:0E195000EE6AFCD7F350E9601200EE6AFCD795
:02195E0013EE86
:1019600000F023EE00F0F86A019CADEC0BF0BDEC4A
:0A1970000CF0D9EC09F0FBD71200CF
:02197A00120059
:02197C00FEFF6C
:02197E004154D2
:101980002B434D47463D310D0041542B434D4753AA
:101990003D2258585858585858585858220D004108
:1019A000542B434E4D493D312C322C302C302C30B1
:1019B0000D0041542B435343533D2247534D220DB9
:0A19C000001A0D4F4B0D000000004F
:020000040030CA
:010001000CF2
:010003001EDE
:010005008377
:00000001FF
